:1000000045C0000058C0000056C0000054C00000A9
:1000100052C0000050C000004EC000004CC00000A4
:100020004AC0000048C0000046C0000044C00000B4
:1000300042C0000040C000003EC000003CC00000C4
:100040003AC0000038C0000036C0000034C00000D4
:1000500032C0000030C000002EC000002CC00000E4
:100060002AC0000028C0000026C0000024C00000F4
:1000700022C0000020C000001EC000001CC0000004
:100080001AC0000018C0000016C0000011241FBED6
:10009000CFEFD0E1DEBFCDBF11E0A0E0B1E0E4E002
:1000A000F2E000E00BBF02C007900D92A631B1074D
:1000B000D9F781D0A5C0A4CFE5E6F0E090819860A3
:1000C000908390819B7F908390819260908390E158
:1000D0009A95F1F700C08BBB80E18A95F1F700C0DB
:1000E00080818D7F80830895E5E6F0E09081977FA1
:1000F000908390819B7F908390819260908390E128
:100100009A95F1F700C08BBB80E18A95F1F700C0AA
:1001100080818D7F80830895CFDF89EF90E0019704
:10012000F1F700C000000895CF93DF93EC0102C007
:10013000F3DF219688818111FBCFDF91CF91089564
:1001400090E4899F600D1124862F8068CDCF08959B
:1001500081E0CADF83EF91E00197F1F700C0000072
:10016000089588E3C1DF83EF91E00197F1F700C0C4
:10017000000088E3B9DF83EF91E00197F1F700C059
:10018000000088E3B1DF83EF91E00197F1F700C051
:1001900000008CE0A9DF83EF91E00197F1F700C048
:1001A000000086E0A1DF83EF91E00197F1F700C046
:1001B0000000CECF08958FEF8ABB80936400D1DF1B
:1001C000C7DF2FEF8FE796E1215080409040E1F7A5
:1001D00000C0000060E080E0B3DF80E091E0A4DFD9
:1001E00060E081E0ADDF8AE091E09EDF2FEF8FE7F6
:1001F00096E1215080409040E1F700C00000FFCF21
:04020000F894FFCFA0
:10020400204C43442054455354002041546D6567A9
:06021400612031323800C8
:00000001FF
